{
  "_format": "hh-sol-artifact-1",
  "contractName": "CourseCertificateNFT",
  "sourceName": "contracts/CourseCertificateNFT.sol",
  "abi": [
    {
      "inputs": [],
      "stateMutability": "nonpayable",
      "type": "constructor"
    },
    {
      "anonymous": false,
      "inputs": [
        {
          "indexed": true,
          "internalType": "address",
          "name": "owner",
          "type": "address"
        },
        {
          "indexed": true,
          "internalType": "address",
          "name": "approved",
          "type": "address"
        },
        {
          "indexed": true,
          "internalType": "uint256",
          "name": "tokenId",
          "type": "uint256"
        }
      ],
      "name": "Approval",
      "type": "event"
    },
    {
      "anonymous": false,
      "inputs": [
        {
          "indexed": true,
          "internalType": "address",
          "name": "owner",
          "type": "address"
        },
        {
          "indexed": true,
          "internalType": "address",
          "name": "operator",
          "type": "address"
        },
        {
          "indexed": false,
          "internalType": "bool",
          "name": "approved",
          "type": "bool"
        }
      ],
      "name": "ApprovalForAll",
      "type": "event"
    },
    {
      "anonymous": false,
      "inputs": [
        {
          "indexed": false,
          "internalType": "uint256",
          "name": "_fromTokenId",
          "type": "uint256"
        },
        {
          "indexed": false,
          "internalType": "uint256",
          "name": "_toTokenId",
          "type": "uint256"
        }
      ],
      "name": "BatchMetadataUpdate",
      "type": "event"
    },
    {
      "anonymous": false,
      "inputs": [
        {
          "indexed": true,
          "internalType": "uint256",
          "name": "tokenId",
          "type": "uint256"
        },
        {
          "indexed": true,
          "internalType": "address",
          "name": "student",
          "type": "address"
        },
        {
          "indexed": false,
          "internalType": "string",
          "name": "courseId",
          "type": "string"
        },
        {
          "indexed": false,
          "internalType": "uint256",
          "name": "score",
          "type": "uint256"
        },
        {
          "indexed": false,
          "internalType": "string",
          "name": "tokenURI",
          "type": "string"
        }
      ],
      "name": "CertificateMinted",
      "type": "event"
    },
    {
      "anonymous": false,
      "inputs": [
        {
          "indexed": false,
          "internalType": "uint256",
          "name": "_tokenId",
          "type": "uint256"
        }
      ],
      "name": "MetadataUpdate",
      "type": "event"
    },
    {
      "anonymous": false,
      "inputs": [
        {
          "indexed": true,
          "internalType": "address",
          "name": "previousOwner",
          "type": "address"
        },
        {
          "indexed": true,
          "internalType": "address",
          "name": "newOwner",
          "type": "address"
        }
      ],
      "name": "OwnershipTransferred",
      "type": "event"
    },
    {
      "anonymous": false,
      "inputs": [
        {
          "indexed": true,
          "internalType": "address",
          "name": "from",
          "type": "address"
        },
        {
          "indexed": true,
          "internalType": "address",
          "name": "to",
          "type": "address"
        },
        {
          "indexed": true,
          "internalType": "uint256",
          "name": "tokenId",
          "type": "uint256"
        }
      ],
      "name": "Transfer",
      "type": "event"
    },
    {
      "inputs": [
        {
          "internalType": "address",
          "name": "to",
          "type": "address"
        },
        {
          "internalType": "uint256",
          "name": "tokenId",
          "type": "uint256"
        }
      ],
      "name": "approve",
      "outputs": [],
      "stateMutability": "nonpayable",
      "type": "function"
    },
    {
      "inputs": [
        {
          "internalType": "address",
          "name": "owner",
          "type": "address"
        }
      ],
      "name": "balanceOf",
      "outputs": [
        {
          "internalType": "uint256",
          "name": "",
          "type": "uint256"
        }
      ],
      "stateMutability": "view",
      "type": "function"
    },
    {
      "inputs": [
        {
          "internalType": "uint256",
          "name": "",
          "type": "uint256"
        }
      ],
      "name": "certificateData",
      "outputs": [
        {
          "internalType": "string",
          "name": "courseId",
          "type": "string"
        },
        {
          "internalType": "uint256",
          "name": "score",
          "type": "uint256"
        },
        {
          "internalType": "uint256",
          "name": "issuedAt",
          "type": "uint256"
        }
      ],
      "stateMutability": "view",
      "type": "function"
    },
    {
      "inputs": [
        {
          "internalType": "uint256",
          "name": "tokenId",
          "type": "uint256"
        }
      ],
      "name": "getApproved",
      "outputs": [
        {
          "internalType": "address",
          "name": "",
          "type": "address"
        }
      ],
      "stateMutability": "view",
      "type": "function"
    },
    {
      "inputs": [
        {
          "internalType": "address",
          "name": "owner",
          "type": "address"
        },
        {
          "internalType": "address",
          "name": "operator",
          "type": "address"
        }
      ],
      "name": "isApprovedForAll",
      "outputs": [
        {
          "internalType": "bool",
          "name": "",
          "type": "bool"
        }
      ],
      "stateMutability": "view",
      "type": "function"
    },
    {
      "inputs": [
        {
          "internalType": "address",
          "name": "student",
          "type": "address"
        },
        {
          "internalType": "string",
          "name": "courseId",
          "type": "string"
        },
        {
          "internalType": "uint256",
          "name": "score",
          "type": "uint256"
        },
        {
          "internalType": "string",
          "name": "metadataURI",
          "type": "string"
        }
      ],
      "name": "mintCertificate",
      "outputs": [
        {
          "internalType": "uint256",
          "name": "",
          "type": "uint256"
        }
      ],
      "stateMutability": "nonpayable",
      "type": "function"
    },
    {
      "inputs": [],
      "name": "name",
      "outputs": [
        {
          "internalType": "string",
          "name": "",
          "type": "string"
        }
      ],
      "stateMutability": "view",
      "type": "function"
    },
    {
      "inputs": [],
      "name": "owner",
      "outputs": [
        {
          "internalType": "address",
          "name": "",
          "type": "address"
        }
      ],
      "stateMutability": "view",
      "type": "function"
    },
    {
      "inputs": [
        {
          "internalType": "uint256",
          "name": "tokenId",
          "type": "uint256"
        }
      ],
      "name": "ownerOf",
      "outputs": [
        {
          "internalType": "address",
          "name": "",
          "type": "address"
        }
      ],
      "stateMutability": "view",
      "type": "function"
    },
    {
      "inputs": [],
      "name": "renounceOwnership",
      "outputs": [],
      "stateMutability": "nonpayable",
      "type": "function"
    },
    {
      "inputs": [
        {
          "internalType": "address",
          "name": "from",
          "type": "address"
        },
        {
          "internalType": "address",
          "name": "to",
          "type": "address"
        },
        {
          "internalType": "uint256",
          "name": "tokenId",
          "type": "uint256"
        }
      ],
      "name": "safeTransferFrom",
      "outputs": [],
      "stateMutability": "nonpayable",
      "type": "function"
    },
    {
      "inputs": [
        {
          "internalType": "address",
          "name": "from",
          "type": "address"
        },
        {
          "internalType": "address",
          "name": "to",
          "type": "address"
        },
        {
          "internalType": "uint256",
          "name": "tokenId",
          "type": "uint256"
        },
        {
          "internalType": "bytes",
          "name": "data",
          "type": "bytes"
        }
      ],
      "name": "safeTransferFrom",
      "outputs": [],
      "stateMutability": "nonpayable",
      "type": "function"
    },
    {
      "inputs": [
        {
          "internalType": "address",
          "name": "operator",
          "type": "address"
        },
        {
          "internalType": "bool",
          "name": "approved",
          "type": "bool"
        }
      ],
      "name": "setApprovalForAll",
      "outputs": [],
      "stateMutability": "nonpayable",
      "type": "function"
    },
    {
      "inputs": [
        {
          "internalType": "bytes4",
          "name": "interfaceId",
          "type": "bytes4"
        }
      ],
      "name": "supportsInterface",
      "outputs": [
        {
          "internalType": "bool",
          "name": "",
          "type": "bool"
        }
      ],
      "stateMutability": "view",
      "type": "function"
    },
    {
      "inputs": [],
      "name": "symbol",
      "outputs": [
        {
          "internalType": "string",
          "name": "",
          "type": "string"
        }
      ],
      "stateMutability": "view",
      "type": "function"
    },
    {
      "inputs": [
        {
          "internalType": "uint256",
          "name": "tokenId",
          "type": "uint256"
        }
      ],
      "name": "tokenURI",
      "outputs": [
        {
          "internalType": "string",
          "name": "",
          "type": "string"
        }
      ],
      "stateMutability": "view",
      "type": "function"
    },
    {
      "inputs": [
        {
          "internalType": "address",
          "name": "from",
          "type": "address"
        },
        {
          "internalType": "address",
          "name": "to",
          "type": "address"
        },
        {
          "internalType": "uint256",
          "name": "tokenId",
          "type": "uint256"
        }
      ],
      "name": "transferFrom",
      "outputs": [],
      "stateMutability": "nonpayable",
      "type": "function"
    },
    {
      "inputs": [
        {
          "internalType": "address",
          "name": "newOwner",
          "type": "address"
        }
      ],
      "name": "transferOwnership",
      "outputs": [],
      "stateMutability": "nonpayable",
      "type": "function"
    }
  ],
  "bytecode": "0x60806040523480156200001157600080fd5b506040518060400160405280601681526020017f4c4d5320436f757273652043657274696669636174650000000000000000000081525060405180604001604052806007815260200166131354d0d1549560ca1b8152508160009081620000799190620001a6565b506001620000888282620001a6565b505050620000a56200009f620000ab60201b60201c565b620000af565b62000272565b3390565b600780546001600160a01b038381166001600160a01b0319831681179093556040519116919082907f8be0079c531659141344cd1fd0a4f28419497f9722a3daafe3b4186f6b6457e090600090a35050565b634e487b7160e01b600052604160045260246000fd5b600181811c908216806200012c57607f821691505b6020821081036200014d57634e487b7160e01b600052602260045260246000fd5b50919050565b601f821115620001a157600081815260208120601f850160051c810160208610156200017c5750805b601f850160051c820191505b818110156200019d5782815560010162000188565b5050505b505050565b81516001600160401b03811115620001c257620001c262000101565b620001da81620001d3845462000117565b8462000153565b602080601f831160018114620002125760008415620001f95750858301515b600019600386901b1c1916600185901b1785556200019d565b600085815260208120601f198616915b82811015620002435788860151825594840194600190910190840162000222565b5085821015620002625787850151600019600388901b60f8161c191681555b5050505050600190811b01905550565b611a8a80620002826000396000f3fe608060405234801561001057600080fd5b50600436106101165760003560e01c80638024818a116100a2578063b88d4fde11610071578063b88d4fde14610248578063c87b56dd1461025b578063cb2f03811461026e578063e985e9c514610281578063f2fde38b1461029457600080fd5b80638024818a146101fa5780638da5cb5b1461021c57806395d89b411461022d578063a22cb4651461023557600080fd5b806323b872dd116100e957806323b872dd1461019857806342842e0e146101ab5780636352211e146101be57806370a08231146101d1578063715018a6146101f257600080fd5b806301ffc9a71461011b57806306fdde0314610143578063081812fc14610158578063095ea7b314610183575b600080fd5b61012e6101293660046113ef565b6102a7565b60405190151581526020015b60405180910390f35b61014b6102d2565b60405161013a919061145c565b61016b61016636600461146f565b610364565b6040516001600160a01b03909116815260200161013a565b6101966101913660046114a4565b61038b565b005b6101966101a63660046114ce565b6104a5565b6101966101b93660046114ce565b6104d6565b61016b6101cc36600461146f565b6104f1565b6101e46101df36600461150a565b610551565b60405190815260200161013a565b6101966105d7565b61020d61020836600461146f565b6105eb565b60405161013a93929190611525565b6007546001600160a01b031661016b565b61014b610695565b61019661024336600461154a565b6106a4565b610196610256366004611612565b6106b3565b61014b61026936600461146f565b6106eb565b6101e461027c3660046116ae565b6107fb565b61012e61028f366004611720565b610926565b6101966102a236600461150a565b610954565b60006001600160e01b03198216632483248360e11b14806102cc57506102cc826109cd565b92915050565b6060600080546102e190611753565b80601f016020809104026020016040519081016040528092919081815260200182805461030d90611753565b801561035a5780601f1061032f5761010080835404028352916020019161035a565b820191906000526020600020905b81548152906001019060200180831161033d57829003601f168201915b5050505050905090565b600061036f82610a1d565b506000908152600460205260409020546001600160a01b031690565b6000610396826104f1565b9050806001600160a01b0316836001600160a01b0316036104085760405162461bcd60e51b815260206004820152602160248201527f4552433732313a20617070726f76616c20746f2063757272656e74206f776e656044820152603960f91b60648201526084015b60405180910390fd5b336001600160a01b038216148061042457506104248133610926565b6104965760405162461bcd60e51b815260206004820152603d60248201527f4552433732313a20617070726f76652063616c6c6572206973206e6f7420746f60448201527f6b656e206f776e6572206f7220617070726f76656420666f7220616c6c00000060648201526084016103ff565b6104a08383610a7c565b505050565b6104af3382610aea565b6104cb5760405162461bcd60e51b81526004016103ff9061178d565b6104a0838383610b48565b6104a0838383604051806020016040528060008152506106b3565b6000818152600260205260408120546001600160a01b0316806102cc5760405162461bcd60e51b8152602060048201526018602482015277115490cdcc8c4e881a5b9d985b1a59081d1bdad95b88125160421b60448201526064016103ff565b60006001600160a01b0382166105bb5760405162461bcd60e51b815260206004820152602960248201527f4552433732313a2061646472657373207a65726f206973206e6f7420612076616044820152683634b21037bbb732b960b91b60648201526084016103ff565b506001600160a01b031660009081526003602052604090205490565b6105df610cac565b6105e96000610d06565b565b60096020526000908152604090208054819061060690611753565b80601f016020809104026020016040519081016040528092919081815260200182805461063290611753565b801561067f5780601f106106545761010080835404028352916020019161067f565b820191906000526020600020905b81548152906001019060200180831161066257829003601f168201915b5050505050908060010154908060020154905083565b6060600180546102e190611753565b6106af338383610d58565b5050565b6106bd3383610aea565b6106d95760405162461bcd60e51b81526004016103ff9061178d565b6106e584848484610e26565b50505050565b60606106f682610a1d565b6000828152600660205260408120805461070f90611753565b80601f016020809104026020016040519081016040528092919081815260200182805461073b90611753565b80156107885780601f1061075d57610100808354040283529160200191610788565b820191906000526020600020905b81548152906001019060200180831161076b57829003601f168201915b5050505050905060006107a660408051602081019091526000815290565b905080516000036107b8575092915050565b8151156107ea5780826040516020016107d29291906117da565b60405160208183030381529060405292505050919050565b6107f384610e59565b949350505050565b6000610805610cac565b6001600160a01b03851661085b5760405162461bcd60e51b815260206004820152601760248201527f496e76616c69642073747564656e74206164647265737300000000000000000060448201526064016103ff565b6008805490600190600061086f8385611809565b9091555061087f90508682610ecd565b6108898184610ee7565b60408051606081018252868152602080820187905242828401526000848152600990915291909120815181906108bf9082611878565b506020820151816001015560408201518160020155905050856001600160a01b0316817fe334845abbd31a2d3f04296404c9d5f0fe513e81be43ac1c8babf499495deb1487878760405161091593929190611938565b60405180910390a395945050505050565b6001600160a01b03918216600090815260056020908152604080832093909416825291909152205460ff1690565b61095c610cac565b6001600160a01b0381166109c15760405162461bcd60e51b815260206004820152602660248201527f4f776e61626c653a206e6577206f776e657220697320746865207a65726f206160448201526564647265737360d01b60648201526084016103ff565b6109ca81610d06565b50565b60006001600160e01b031982166380ac58cd60e01b14806109fe57506001600160e01b03198216635b5e139f60e01b145b806102cc57506301ffc9a760e01b6001600160e01b03198316146102cc565b6000818152600260205260409020546001600160a01b03166109ca5760405162461bcd60e51b8152602060048201526018602482015277115490cdcc8c4e881a5b9d985b1a59081d1bdad95b88125160421b60448201526064016103ff565b600081815260046020526040902080546001600160a01b0319166001600160a01b0384169081179091558190610ab1826104f1565b6001600160a01b03167f8c5be1e5ebec7d5bd14f71427d1e84f3dd0314c0f7b2291e5b200ac8c7c3b92560405160405180910390a45050565b600080610af6836104f1565b9050806001600160a01b0316846001600160a01b03161480610b1d5750610b1d8185610926565b806107f35750836001600160a01b0316610b3684610364565b6001600160a01b031614949350505050565b826001600160a01b0316610b5b826104f1565b6001600160a01b031614610b815760405162461bcd60e51b81526004016103ff9061196d565b6001600160a01b038216610be35760405162461bcd60e51b8152602060048201526024808201527f4552433732313a207472616e7366657220746f20746865207a65726f206164646044820152637265737360e01b60648201526084016103ff565b826001600160a01b0316610bf6826104f1565b6001600160a01b031614610c1c5760405162461bcd60e51b81526004016103ff9061196d565b600081815260046020908152604080832080546001600160a01b03199081169091556001600160a01b0387811680865260038552838620805460001901905590871680865283862080546001019055868652600290945282852080549092168417909155905184937fddf252ad1be2c89b69c2b068fc378daa952ba7f163c4a11628f55a4df523b3ef91a4505050565b6007546001600160a01b031633146105e95760405162461bcd60e51b815260206004820181905260248201527f4f776e61626c653a2063616c6c6572206973206e6f7420746865206f776e657260448201526064016103ff565b600780546001600160a01b038381166001600160a01b0319831681179093556040519116919082907f8be0079c531659141344cd1fd0a4f28419497f9722a3daafe3b4186f6b6457e090600090a35050565b816001600160a01b0316836001600160a01b031603610db95760405162461bcd60e51b815260206004820152601960248201527f4552433732313a20617070726f766520746f2063616c6c65720000000000000060448201526064016103ff565b6001600160a01b03838116600081815260056020908152604080832094871680845294825291829020805460ff191686151590811790915591519182527f17307eab39ab6107e8899845ad3d59bd9653f200f220920489ca2b5937696c31910160405180910390a3505050565b610e31848484610b48565b610e3d84848484610fb2565b6106e55760405162461bcd60e51b81526004016103ff906119b2565b6060610e6482610a1d565b6000610e7b60408051602081019091526000815290565b90506000815111610e9b5760405180602001604052806000815250610ec6565b80610ea5846110b0565b604051602001610eb69291906117da565b6040516020818303038152906040525b9392505050565b6106af828260405180602001604052806000815250611143565b6000828152600260205260409020546001600160a01b0316610f625760405162461bcd60e51b815260206004820152602e60248201527f45524337323155524953746f726167653a2055524920736574206f66206e6f6e60448201526d32bc34b9ba32b73a103a37b5b2b760911b60648201526084016103ff565b6000828152600660205260409020610f7a8282611878565b506040518281527ff8e1a15aba9398e019f0b49df1a4fde98ee17ae345cb5f6b5e2c27f5033e8ce79060200160405180910390a15050565b60006001600160a01b0384163b156110a857604051630a85bd0160e11b81526001600160a01b0385169063150b7a0290610ff6903390899088908890600401611a04565b6020604051808303816000875af1925050508015611031575060408051601f3d908101601f1916820190925261102e91810190611a37565b60015b61108e573d80801561105f576040519150601f19603f3d011682016040523d82523d6000602084013e611064565b606091505b5080516000036110865760405162461bcd60e51b81526004016103ff906119b2565b805181602001fd5b6001600160e01b031916630a85bd0160e11b1490506107f3565b5060016107f3565b606060006110bd83611176565b600101905060008167ffffffffffffffff8111156110dd576110dd611586565b6040519080825280601f01601f191660200182016040528015611107576020820181803683370190505b5090508181016020015b600019016f181899199a1a9b1b9c1cb0b131b232b360811b600a86061a8153600a850494508461111157509392505050565b61114d838361124e565b61115a6000848484610fb2565b6104a05760405162461bcd60e51b81526004016103ff906119b2565b60008072184f03e93ff9f4daa797ed6e38ed64bf6a1f0160401b83106111b55772184f03e93ff9f4daa797ed6e38ed64bf6a1f0160401b830492506040015b6d04ee2d6d415b85acef810000000083106111e1576d04ee2d6d415b85acef8100000000830492506020015b662386f26fc1000083106111ff57662386f26fc10000830492506010015b6305f5e1008310611217576305f5e100830492506008015b612710831061122b57612710830492506004015b6064831061123d576064830492506002015b600a83106102cc5760010192915050565b6001600160a01b0382166112a45760405162461bcd60e51b815260206004820181905260248201527f4552433732313a206d696e7420746f20746865207a65726f206164647265737360448201526064016103ff565b6000818152600260205260409020546001600160a01b0316156113095760405162461bcd60e51b815260206004820152601c60248201527f4552433732313a20746f6b656e20616c7265616479206d696e7465640000000060448201526064016103ff565b6000818152600260205260409020546001600160a01b03161561136e5760405162461bcd60e51b815260206004820152601c60248201527f4552433732313a20746f6b656e20616c7265616479206d696e7465640000000060448201526064016103ff565b6001600160a01b038216600081815260036020908152604080832080546001019055848352600290915280822080546001600160a01b0319168417905551839291907fddf252ad1be2c89b69c2b068fc378daa952ba7f163c4a11628f55a4df523b3ef908290a45050565b6001600160e01b0319811681146109ca57600080fd5b60006020828403121561140157600080fd5b8135610ec6816113d9565b60005b8381101561142757818101518382015260200161140f565b50506000910152565b6000815180845261144881602086016020860161140c565b601f01601f19169290920160200192915050565b602081526000610ec66020830184611430565b60006020828403121561148157600080fd5b5035919050565b80356001600160a01b038116811461149f57600080fd5b919050565b600080604083850312156114b757600080fd5b6114c083611488565b946020939093013593505050565b6000806000606084860312156114e357600080fd5b6114ec84611488565b92506114fa60208501611488565b9150604084013590509250925092565b60006020828403121561151c57600080fd5b610ec682611488565b6060815260006115386060830186611430565b60208301949094525060400152919050565b6000806040838503121561155d57600080fd5b61156683611488565b91506020830135801515811461157b57600080fd5b809150509250929050565b634e487b7160e01b600052604160045260246000fd5b600067ffffffffffffffff808411156115b7576115b7611586565b604051601f8501601f19908116603f011681019082821181831017156115df576115df611586565b816040528093508581528686860111156115f857600080fd5b858560208301376000602087830101525050509392505050565b6000806000806080858703121561162857600080fd5b61163185611488565b935061163f60208601611488565b925060408501359150606085013567ffffffffffffffff81111561166257600080fd5b8501601f8101871361167357600080fd5b6116828782356020840161159c565b91505092959194509250565b600082601f83011261169f57600080fd5b610ec68383356020850161159c565b600080600080608085870312156116c457600080fd5b6116cd85611488565b9350602085013567ffffffffffffffff808211156116ea57600080fd5b6116f68883890161168e565b945060408701359350606087013591508082111561171357600080fd5b506116828782880161168e565b6000806040838503121561173357600080fd5b61173c83611488565b915061174a60208401611488565b90509250929050565b600181811c9082168061176757607f821691505b60208210810361178757634e487b7160e01b600052602260045260246000fd5b50919050565b6020808252602d908201527f4552433732313a2063616c6c6572206973206e6f7420746f6b656e206f776e6560408201526c1c881bdc88185c1c1c9bdd9959609a1b606082015260800190565b600083516117ec81846020880161140c565b83519083019061180081836020880161140c565b01949350505050565b808201808211156102cc57634e487b7160e01b600052601160045260246000fd5b601f8211156104a057600081815260208120601f850160051c810160208610156118515750805b601f850160051c820191505b818110156118705782815560010161185d565b505050505050565b815167ffffffffffffffff81111561189257611892611586565b6118a6816118a08454611753565b8461182a565b602080601f8311600181146118db57600084156118c35750858301515b600019600386901b1c1916600185901b178555611870565b600085815260208120601f198616915b8281101561190a578886015182559484019460019091019084016118eb565b50858210156119285787850151600019600388901b60f8161c191681555b5050505050600190811b01905550565b60608152600061194b6060830186611430565b84602084015282810360408401526119638185611430565b9695505050505050565b60208082526025908201527f4552433732313a207472616e736665722066726f6d20696e636f72726563742060408201526437bbb732b960d91b606082015260800190565b60208082526032908201527f4552433732313a207472616e7366657220746f206e6f6e20455243373231526560408201527131b2b4bb32b91034b6b83632b6b2b73a32b960711b606082015260800190565b6001600160a01b038581168252841660208201526040810183905260806060820181905260009061196390830184611430565b600060208284031215611a4957600080fd5b8151610ec6816113d956fea2646970667358221220e1f0bc508f4852fd444e6c155d96485e7e3e07cd1084110d81e83e48fc8f6e9064736f6c63430008140033",
  "linkReferences": {},
  "deployedLinkReferences": {}
}