{
  "_format": "hh-sol-artifact-1",
  "contractName": "CoursePaymentHandler",
  "sourceName": "contracts/CoursePaymentHandler.sol",
  "abi": [
    {
      "inputs": [
        {
          "internalType": "address",
          "name": "usdcToken",
          "type": "address"
        },
        {
          "internalType": "address",
          "name": "initialTreasury",
          "type": "address"
        }
      ],
      "stateMutability": "nonpayable",
      "type": "constructor"
    },
    {
      "anonymous": false,
      "inputs": [
        {
          "indexed": true,
          "internalType": "address",
          "name": "student",
          "type": "address"
        },
        {
          "indexed": false,
          "internalType": "string",
          "name": "courseId",
          "type": "string"
        },
        {
          "indexed": false,
          "internalType": "uint256",
          "name": "amount",
          "type": "uint256"
        },
        {
          "indexed": false,
          "internalType": "uint256",
          "name": "paidAt",
          "type": "uint256"
        }
      ],
      "name": "CoursePaid",
      "type": "event"
    },
    {
      "anonymous": false,
      "inputs": [
        {
          "indexed": true,
          "internalType": "address",
          "name": "previousOwner",
          "type": "address"
        },
        {
          "indexed": true,
          "internalType": "address",
          "name": "newOwner",
          "type": "address"
        }
      ],
      "name": "OwnershipTransferred",
      "type": "event"
    },
    {
      "inputs": [],
      "name": "owner",
      "outputs": [
        {
          "internalType": "address",
          "name": "",
          "type": "address"
        }
      ],
      "stateMutability": "view",
      "type": "function"
    },
    {
      "inputs": [
        {
          "internalType": "string",
          "name": "courseId",
          "type": "string"
        },
        {
          "internalType": "uint256",
          "name": "amount",
          "type": "uint256"
        }
      ],
      "name": "payForCourse",
      "outputs": [],
      "stateMutability": "nonpayable",
      "type": "function"
    },
    {
      "inputs": [],
      "name": "renounceOwnership",
      "outputs": [],
      "stateMutability": "nonpayable",
      "type": "function"
    },
    {
      "inputs": [
        {
          "internalType": "address",
          "name": "newTreasury",
          "type": "address"
        }
      ],
      "name": "setTreasury",
      "outputs": [],
      "stateMutability": "nonpayable",
      "type": "function"
    },
    {
      "inputs": [
        {
          "internalType": "address",
          "name": "newOwner",
          "type": "address"
        }
      ],
      "name": "transferOwnership",
      "outputs": [],
      "stateMutability": "nonpayable",
      "type": "function"
    },
    {
      "inputs": [],
      "name": "treasury",
      "outputs": [
        {
          "internalType": "address",
          "name": "",
          "type": "address"
        }
      ],
      "stateMutability": "view",
      "type": "function"
    },
    {
      "inputs": [],
      "name": "usdc",
      "outputs": [
        {
          "internalType": "contract IERC20",
          "name": "",
          "type": "address"
        }
      ],
      "stateMutability": "view",
      "type": "function"
    }
  ],
  "bytecode": "0x60a060405234801561001057600080fd5b506040516107bd3803806107bd83398101604081905261002f9161017d565b61003833610111565b6001600160a01b0382166100935760405162461bcd60e51b815260206004820152601a60248201527f496e76616c6964205553444320746f6b656e206164647265737300000000000060448201526064015b60405180910390fd5b6001600160a01b0381166100e95760405162461bcd60e51b815260206004820152601860248201527f496e76616c696420747265617375727920616464726573730000000000000000604482015260640161008a565b6001600160a01b03918216608052600180546001600160a01b031916919092161790556101b0565b600080546001600160a01b038381166001600160a01b0319831681178455604051919092169283917f8be0079c531659141344cd1fd0a4f28419497f9722a3daafe3b4186f6b6457e09190a35050565b80516001600160a01b038116811461017857600080fd5b919050565b6000806040838503121561019057600080fd5b61019983610161565b91506101a760208401610161565b90509250929050565b6080516105ec6101d1600039600081816087015261030201526105ec6000f3fe608060405234801561001057600080fd5b506004361061007d5760003560e01c80638da5cb5b1161005b5780638da5cb5b146100e2578063f0f44260146100f3578063f2fde38b14610106578063fa45b2771461011957600080fd5b80633e413bee1461008257806361d027b3146100c5578063715018a6146100d8575b600080fd5b6100a97f000000000000000000000000000000000000000000000000000000000000000081565b6040516001600160a01b03909116815260200160405180910390f35b6001546100a9906001600160a01b031681565b6100e061012c565b005b6000546001600160a01b03166100a9565b6100e06101013660046104ac565b610140565b6100e06101143660046104ac565b6101c5565b6100e06101273660046104dc565b61023e565b610134610402565b61013e600061045c565b565b610148610402565b6001600160a01b0381166101a35760405162461bcd60e51b815260206004820152601860248201527f496e76616c69642074726561737572792061646472657373000000000000000060448201526064015b60405180910390fd5b600180546001600160a01b0319166001600160a01b0392909216919091179055565b6101cd610402565b6001600160a01b0381166102325760405162461bcd60e51b815260206004820152602660248201527f4f776e61626c653a206e6577206f776e657220697320746865207a65726f206160448201526564647265737360d01b606482015260840161019a565b61023b8161045c565b50565b816102805760405162461bcd60e51b815260206004820152601260248201527110dbdd5c9cd9481a59081c995c5d5a5c995960721b604482015260640161019a565b600081116102d05760405162461bcd60e51b815260206004820181905260248201527f416d6f756e74206d7573742062652067726561746572207468616e207a65726f604482015260640161019a565b6001546040516323b872dd60e01b81523360048201526001600160a01b039182166024820152604481018390526000917f000000000000000000000000000000000000000000000000000000000000000016906323b872dd906064016020604051808303816000875af115801561034b573d6000803e3d6000fd5b505050506040513d601f19601f8201168201806040525081019061036f9190610554565b9050806103b55760405162461bcd60e51b81526020600482015260146024820152731554d110c81d1c985b9cd9995c8819985a5b195960621b604482015260640161019a565b336001600160a01b03167fd6e83fb3aef1c9c47c8fba5559f2451ac8ed0d8d74575471120ee2829ac1cf03858585426040516103f49493929190610576565b60405180910390a250505050565b6000546001600160a01b0316331461013e5760405162461bcd60e51b815260206004820181905260248201527f4f776e61626c653a2063616c6c6572206973206e6f7420746865206f776e6572604482015260640161019a565b600080546001600160a01b038381166001600160a01b0319831681178455604051919092169283917f8be0079c531659141344cd1fd0a4f28419497f9722a3daafe3b4186f6b6457e09190a35050565b6000602082840312156104be57600080fd5b81356001600160a01b03811681146104d557600080fd5b9392505050565b6000806000604084860312156104f157600080fd5b833567ffffffffffffffff8082111561050957600080fd5b818601915086601f83011261051d57600080fd5b81358181111561052c57600080fd5b87602082850101111561053e57600080fd5b6020928301989097509590910135949350505050565b60006020828403121561056657600080fd5b815180151581146104d557600080fd5b606081528360608201528385608083013760006080858301015260006080601f19601f87011683010190508360208301528260408301529594505050505056fea2646970667358221220fd85c68cdae33949fe045d0a4c48d868d21fe6ca8b9cbc3b343a5f3daa16389864736f6c63430008140033",
  "linkReferences": {},
  "deployedLinkReferences": {}
}