{
  "_format": "hh-sol-artifact-1",
  "contractName": "VerificationRegistry",
  "sourceName": "contracts/VerificationRegistry.sol",
  "abi": [
    {
      "inputs": [],
      "stateMutability": "nonpayable",
      "type": "constructor"
    },
    {
      "anonymous": false,
      "inputs": [
        {
          "indexed": true,
          "internalType": "address",
          "name": "student",
          "type": "address"
        },
        {
          "indexed": true,
          "internalType": "bytes32",
          "name": "courseIdHash",
          "type": "bytes32"
        },
        {
          "indexed": false,
          "internalType": "uint256",
          "name": "score",
          "type": "uint256"
        },
        {
          "indexed": false,
          "internalType": "uint256",
          "name": "certificateTokenId",
          "type": "uint256"
        },
        {
          "indexed": false,
          "internalType": "bytes32",
          "name": "recordHash",
          "type": "bytes32"
        }
      ],
      "name": "CompletionRegistered",
      "type": "event"
    },
    {
      "anonymous": false,
      "inputs": [
        {
          "indexed": true,
          "internalType": "address",
          "name": "previousOwner",
          "type": "address"
        },
        {
          "indexed": true,
          "internalType": "address",
          "name": "newOwner",
          "type": "address"
        }
      ],
      "name": "OwnershipTransferred",
      "type": "event"
    },
    {
      "inputs": [
        {
          "internalType": "address",
          "name": "",
          "type": "address"
        },
        {
          "internalType": "bytes32",
          "name": "",
          "type": "bytes32"
        }
      ],
      "name": "completions",
      "outputs": [
        {
          "internalType": "bool",
          "name": "completed",
          "type": "bool"
        },
        {
          "internalType": "uint256",
          "name": "score",
          "type": "uint256"
        },
        {
          "internalType": "uint256",
          "name": "completedAt",
          "type": "uint256"
        },
        {
          "internalType": "uint256",
          "name": "certificateTokenId",
          "type": "uint256"
        },
        {
          "internalType": "bytes32",
          "name": "recordHash",
          "type": "bytes32"
        }
      ],
      "stateMutability": "view",
      "type": "function"
    },
    {
      "inputs": [
        {
          "internalType": "address",
          "name": "student",
          "type": "address"
        },
        {
          "internalType": "string",
          "name": "courseId",
          "type": "string"
        }
      ],
      "name": "isCompleted",
      "outputs": [
        {
          "internalType": "bool",
          "name": "",
          "type": "bool"
        }
      ],
      "stateMutability": "view",
      "type": "function"
    },
    {
      "inputs": [],
      "name": "owner",
      "outputs": [
        {
          "internalType": "address",
          "name": "",
          "type": "address"
        }
      ],
      "stateMutability": "view",
      "type": "function"
    },
    {
      "inputs": [
        {
          "internalType": "address",
          "name": "student",
          "type": "address"
        },
        {
          "internalType": "string",
          "name": "courseId",
          "type": "string"
        },
        {
          "internalType": "uint256",
          "name": "score",
          "type": "uint256"
        },
        {
          "internalType": "uint256",
          "name": "certificateTokenId",
          "type": "uint256"
        },
        {
          "internalType": "bytes32",
          "name": "recordHash",
          "type": "bytes32"
        }
      ],
      "name": "registerCompletion",
      "outputs": [],
      "stateMutability": "nonpayable",
      "type": "function"
    },
    {
      "inputs": [],
      "name": "renounceOwnership",
      "outputs": [],
      "stateMutability": "nonpayable",
      "type": "function"
    },
    {
      "inputs": [
        {
          "internalType": "address",
          "name": "newOwner",
          "type": "address"
        }
      ],
      "name": "transferOwnership",
      "outputs": [],
      "stateMutability": "nonpayable",
      "type": "function"
    }
  ],
  "bytecode": "0x608060405234801561001057600080fd5b5061001a3361001f565b61006f565b600080546001600160a01b038381166001600160a01b0319831681178455604051919092169283917f8be0079c531659141344cd1fd0a4f28419497f9722a3daafe3b4186f6b6457e09190a35050565b6106728061007e6000396000f3fe608060405234801561001057600080fd5b50600436106100625760003560e01c80636fa8e14314610067578063715018a61461008f5780637310eae7146100995780638da5cb5b1461010d578063ce609e4a14610128578063f2fde38b1461013b575b600080fd5b61007a610075366004610520565b61014e565b60405190151581526020015b60405180910390f35b6100976101a7565b005b6100e36100a7366004610573565b600160208181526000938452604080852090915291835291208054918101546002820154600383015460049093015460ff909416939192909185565b6040805195151586526020860194909452928401919091526060830152608082015260a001610086565b6000546040516001600160a01b039091168152602001610086565b61009761013636600461059d565b6101bb565b61009761014936600461060a565b610398565b600080838360405160200161016492919061062c565b60408051601f1981840301815291815281516020928301206001600160a01b038816600090815260018452828120918152925290205460ff169150509392505050565b6101af610411565b6101b9600061046b565b565b6101c3610411565b6001600160a01b03861661021e5760405162461bcd60e51b815260206004820152601760248201527f496e76616c69642073747564656e74206164647265737300000000000000000060448201526064015b60405180910390fd5b836102605760405162461bcd60e51b815260206004820152601260248201527110dbdd5c9cd9481a59081c995c5d5a5c995960721b6044820152606401610215565b6000858560405160200161027592919061062c565b6040516020818303038152906040528051906020012090506040518060a001604052806001151581526020018581526020014281526020018481526020018381525060016000896001600160a01b03166001600160a01b03168152602001908152602001600020600083815260200190815260200160002060008201518160000160006101000a81548160ff0219169083151502179055506020820151816001015560408201518160020155606082015181600301556080820151816004015590505080876001600160a01b03167fee61daec69216e23131bf7fd0a15ddc17c0ab935118af41926054dc0aac943a7868686604051610387939291909283526020830191909152604082015260600190565b60405180910390a350505050505050565b6103a0610411565b6001600160a01b0381166104055760405162461bcd60e51b815260206004820152602660248201527f4f776e61626c653a206e6577206f776e657220697320746865207a65726f206160448201526564647265737360d01b6064820152608401610215565b61040e8161046b565b50565b6000546001600160a01b031633146101b95760405162461bcd60e51b815260206004820181905260248201527f4f776e61626c653a2063616c6c6572206973206e6f7420746865206f776e65726044820152606401610215565b600080546001600160a01b038381166001600160a01b0319831681178455604051919092169283917f8be0079c531659141344cd1fd0a4f28419497f9722a3daafe3b4186f6b6457e09190a35050565b80356001600160a01b03811681146104d257600080fd5b919050565b60008083601f8401126104e957600080fd5b50813567ffffffffffffffff81111561050157600080fd5b60208301915083602082850101111561051957600080fd5b9250929050565b60008060006040848603121561053557600080fd5b61053e846104bb565b9250602084013567ffffffffffffffff81111561055a57600080fd5b610566868287016104d7565b9497909650939450505050565b6000806040838503121561058657600080fd5b61058f836104bb565b946020939093013593505050565b60008060008060008060a087890312156105b657600080fd5b6105bf876104bb565b9550602087013567ffffffffffffffff8111156105db57600080fd5b6105e789828a016104d7565b979a90995096976040810135976060820135975060809091013595509350505050565b60006020828403121561061c57600080fd5b610625826104bb565b9392505050565b818382376000910190815291905056fea26469706673582212205dd15f88a50a5a3256fb610388bb386a997fed87b4d7e9160eea3849991ab9f464736f6c63430008140033",
  "linkReferences": {},
  "deployedLinkReferences": {}
}